{
  "_format": "hh-sol-artifact-1",
  "contractName": "DocumentManager",
  "sourceName": "contracts/DocumentManager.sol",
  "abi": [
    {
      "inputs": [],
      "stateMutability": "nonpayable",
      "type": "constructor"
    },
    {
      "anonymous": false,
      "inputs": [
        {
          "indexed": true,
          "internalType": "string",
          "name": "hash",
          "type": "string"
        },
        {
          "indexed": false,
          "internalType": "address",
          "name": "creator",
          "type": "address"
        }
      ],
      "name": "DocumentCreated",
      "type": "event"
    },
    {
      "anonymous": false,
      "inputs": [
        {
          "indexed": true,
          "internalType": "string",
          "name": "hash",
          "type": "string"
        },
        {
          "indexed": false,
          "internalType": "bool",
          "name": "isValid",
          "type": "bool"
        }
      ],
      "name": "DocumentStatusChanged",
      "type": "event"
    },
    {
      "anonymous": false,
      "inputs": [
        {
          "indexed": true,
          "internalType": "address",
          "name": "userAddress",
          "type": "address"
        },
        {
          "indexed": false,
          "internalType": "enum DocumentManager.UserRole",
          "name": "role",
          "type": "uint8"
        }
      ],
      "name": "UserAdded",
      "type": "event"
    },
    {
      "inputs": [
        {
          "internalType": "address",
          "name": "_userAddress",
          "type": "address"
        },
        {
          "internalType": "enum DocumentManager.UserRole",
          "name": "_role",
          "type": "uint8"
        },
        {
          "internalType": "string",
          "name": "_name",
          "type": "string"
        }
      ],
      "name": "addUser",
      "outputs": [],
      "stateMutability": "nonpayable",
      "type": "function"
    },
    {
      "inputs": [
        {
          "internalType": "address",
          "name": "",
          "type": "address"
        }
      ],
      "name": "administrators",
      "outputs": [
        {
          "internalType": "bool",
          "name": "",
          "type": "bool"
        }
      ],
      "stateMutability": "view",
      "type": "function"
    },
    {
      "inputs": [
        {
          "internalType": "string",
          "name": "_hash",
          "type": "string"
        },
        {
          "internalType": "string",
          "name": "_qrCode",
          "type": "string"
        }
      ],
      "name": "createDocument",
      "outputs": [],
      "stateMutability": "nonpayable",
      "type": "function"
    },
    {
      "inputs": [
        {
          "internalType": "string",
          "name": "",
          "type": "string"
        }
      ],
      "name": "documents",
      "outputs": [
        {
          "internalType": "string",
          "name": "hash",
          "type": "string"
        },
        {
          "internalType": "address",
          "name": "creator",
          "type": "address"
        },
        {
          "internalType": "uint256",
          "name": "timestamp",
          "type": "uint256"
        },
        {
          "internalType": "string",
          "name": "qrCode",
          "type": "string"
        },
        {
          "internalType": "bool",
          "name": "isValid",
          "type": "bool"
        }
      ],
      "stateMutability": "view",
      "type": "function"
    },
    {
      "inputs": [
        {
          "internalType": "string",
          "name": "_hash",
          "type": "string"
        }
      ],
      "name": "invalidateDocument",
      "outputs": [],
      "stateMutability": "nonpayable",
      "type": "function"
    },
    {
      "inputs": [
        {
          "internalType": "address",
          "name": "",
          "type": "address"
        }
      ],
      "name": "users",
      "outputs": [
        {
          "internalType": "address",
          "name": "userAddress",
          "type": "address"
        },
        {
          "internalType": "enum DocumentManager.UserRole",
          "name": "role",
          "type": "uint8"
        },
        {
          "internalType": "bool",
          "name": "isActive",
          "type": "bool"
        },
        {
          "internalType": "string",
          "name": "name",
          "type": "string"
        }
      ],
      "stateMutability": "view",
      "type": "function"
    },
    {
      "inputs": [
        {
          "internalType": "string",
          "name": "_hash",
          "type": "string"
        }
      ],
      "name": "verifyDocument",
      "outputs": [
        {
          "internalType": "bool",
          "name": "",
          "type": "bool"
        }
      ],
      "stateMutability": "view",
      "type": "function"
    }
  ],
  "bytecode": "0x608060405234801561001057600080fd5b5060018060003373ffffffffffffffffffffffffffffffffffffffff1673ffffffffffffffffffffffffffffffffffffffff16815260200190815260200160002060006101000a81548160ff0219169083151502179055506113e5806100776000396000f3fe608060405234801561001057600080fd5b506004361061007d5760003560e01c806393ebc4c81161005b57806393ebc4c8146100ea578063a87430ba14610106578063b3dd697b14610139578063beee5eb71461016d5761007d565b80631b621875146100825780633d7dc4c11461009e57806376be1585146100ba575b600080fd5b61009c60048036038101906100979190610cff565b61019d565b005b6100b860048036038101906100b39190610c98565b610317565b005b6100d460048036038101906100cf9190610c6f565b6106a8565b6040516100e19190611036565b60405180910390f35b61010460048036038101906100ff9190610d40565b6106c8565b005b610120600480360381019061011b9190610c6f565b610888565b6040516101309493929190610fea565b60405180910390f35b610153600480360381019061014e9190610cff565b61097a565b60405161016495949392919061106c565b60405180910390f35b61018760048036038101906101829190610cff565b610b03565b6040516101949190611036565b60405180910390f35b600160003373ffffffffffffffffffffffffffffffffffffffff1673ffffffffffffffffffffffffffffffffffffffff16815260200190815260200160002060009054906101000a900460ff16610229576040517f08c379a00000000000000000000000000000000000000000000000000000000081526004016102209061112d565b60405180910390fd5b6000808260405161023a9190610fb8565b908152602001604051809103902060020154141561028d576040517f08c379a00000000000000000000000000000000000000000000000000000000081526004016102849061114d565b60405180910390fd5b6000808260405161029e9190610fb8565b908152602001604051809103902060040160006101000a81548160ff021916908315150217905550806040516102d49190610fb8565b60405180910390207f30d7e87869736f7146fcc8fe23a82408eb3e43dda8b820c5117ad13891fc1da2600060405161030c9190611036565b60405180910390a250565b600160003373ffffffffffffffffffffffffffffffffffffffff1673ffffffffffffffffffffffffffffffffffffffff16815260200190815260200160002060009054906101000a900460ff166103a3576040517f08c379a000000000000000000000000000000000000000000000000000000000815260040161039a9061112d565b60405180910390fd5b600073ffffffffffffffffffffffffffffffffffffffff168373ffffffffffffffffffffffffffffffffffffffff161415610413576040517f08c379a000000000000000000000000000000000000000000000000000000000815260040161040a906110cd565b60405180910390fd5b6000600381111561044d577f4e487b7100000000000000000000000000000000000000000000000000000000600052602160045260246000fd5b826003811115610486577f4e487b7100000000000000000000000000000000000000000000000000000000600052602160045260246000fd5b14156104c7576040517f08c379a00000000000000000000000000000000000000000000000000000000081526004016104be906110ed565b60405180910390fd5b60405180608001604052808473ffffffffffffffffffffffffffffffffffffffff168152602001836003811115610527577f4e487b7100000000000000000000000000000000000000000000000000000000600052602160045260246000fd5b815260200160011515815260200182815250600260008573ffffffffffffffffffffffffffffffffffffffff1673ffffffffffffffffffffffffffffffffffffffff16815260200190815260200160002060008201518160000160006101000a81548173ffffffffffffffffffffffffffffffffffffffff021916908373ffffffffffffffffffffffffffffffffffffffff16021790555060208201518160000160146101000a81548160ff02191690836003811115610610577f4e487b7100000000000000000000000000000000000000000000000000000000600052602160045260246000fd5b021790555060408201518160000160156101000a81548160ff0219169083151502179055506060820151816001019080519060200190610651929190610b3a565b509050508273ffffffffffffffffffffffffffffffffffffffff167f8d93da78c5d61de09788c993549916bf1b30acbd57b05c246459808bd55945ed8360405161069b9190611051565b60405180910390a2505050565b60016020528060005260406000206000915054906101000a900460ff1681565b600080836040516106d99190610fb8565b9081526020016040518091039020600201541461072b576040517f08c379a00000000000000000000000000000000000000000000000000000000081526004016107229061110d565b60405180910390fd5b6040518060a001604052808381526020013373ffffffffffffffffffffffffffffffffffffffff1681526020014281526020018281526020016001151581525060008360405161077b9190610fb8565b908152602001604051809103902060008201518160000190805190602001906107a5929190610b3a565b5060208201518160010160006101000a81548173ffffffffffffffffffffffffffffffffffffffff021916908373ffffffffffffffffffffffffffffffffffffffff160217905550604082015181600201556060820151816003019080519060200190610813929190610b3a565b5060808201518160040160006101000a81548160ff021916908315150217905550905050816040516108459190610fb8565b60405180910390207f144ced1a295f096707ac7e7d8aa1a5a89bc1fd73ea6c8d75de34bba0fe0b132e3360405161087c9190610fcf565b60405180910390a25050565b60026020528060005260406000206000915090508060000160009054906101000a900473ffffffffffffffffffffffffffffffffffffffff16908060000160149054906101000a900460ff16908060000160159054906101000a900460ff16908060010180546108f7906112a4565b80601f0160208091040260200160405190810160405280929190818152602001828054610923906112a4565b80156109705780601f1061094557610100808354040283529160200191610970565b820191906000526020600020905b81548152906001019060200180831161095357829003601f168201915b5050505050905084565b6000818051602081018201805184825260208301602085012081835280955050505050506000915090508060000180546109b3906112a4565b80601f01602080910402602001604051908101604052809291908181526020018280546109df906112a4565b8015610a2c5780601f10610a0157610100808354040283529160200191610a2c565b820191906000526020600020905b815481529060010190602001808311610a0f57829003601f168201915b5050505050908060010160009054906101000a900473ffffffffffffffffffffffffffffffffffffffff1690806002015490806003018054610a6d906112a4565b80601f0160208091040260200160405190810160405280929190818152602001828054610a99906112a4565b8015610ae65780601f10610abb57610100808354040283529160200191610ae6565b820191906000526020600020905b815481529060010190602001808311610ac957829003601f168201915b5050505050908060040160009054906101000a900460ff16905085565b60008082604051610b149190610fb8565b908152602001604051809103902060040160009054906101000a900460ff169050919050565b828054610b46906112a4565b90600052602060002090601f016020900481019282610b685760008555610baf565b82601f10610b8157805160ff1916838001178555610baf565b82800160010185558215610baf579182015b82811115610bae578251825591602001919060010190610b93565b5b509050610bbc9190610bc0565b5090565b5b80821115610bd9576000816000905550600101610bc1565b5090565b6000610bf0610beb8461119e565b61116d565b905082815260208101848484011115610c0857600080fd5b610c13848285611262565b509392505050565b600081359050610c2a81611388565b92915050565b600081359050610c3f8161139f565b92915050565b600082601f830112610c5657600080fd5b8135610c66848260208601610bdd565b91505092915050565b600060208284031215610c8157600080fd5b6000610c8f84828501610c1b565b91505092915050565b600080600060608486031215610cad57600080fd5b6000610cbb86828701610c1b565b9350506020610ccc86828701610c30565b925050604084013567ffffffffffffffff811115610ce957600080fd5b610cf586828701610c45565b9150509250925092565b600060208284031215610d1157600080fd5b600082013567ffffffffffffffff811115610d2b57600080fd5b610d3784828501610c45565b91505092915050565b60008060408385031215610d5357600080fd5b600083013567ffffffffffffffff811115610d6d57600080fd5b610d7985828601610c45565b925050602083013567ffffffffffffffff811115610d9657600080fd5b610da285828601610c45565b9150509250929050565b610db5816111f5565b82525050565b610dc481611207565b82525050565b610dd381611250565b82525050565b6000610de4826111ce565b610dee81856111d9565b9350610dfe818560208601611271565b610e0781611363565b840191505092915050565b6000610e1d826111ce565b610e2781856111ea565b9350610e37818560208601611271565b80840191505092915050565b6000610e50600f836111d9565b91507f496e76616c6964206164647265737300000000000000000000000000000000006000830152602082019050919050565b6000610e90600c836111d9565b91507f496e76616c696420726f6c6500000000000000000000000000000000000000006000830152602082019050919050565b6000610ed06017836111d9565b91507f446f63756d656e7420616c7265616479206578697374730000000000000000006000830152602082019050919050565b6000610f106022836111d9565b91507f4f6e6c792061646d696e2063616e20706572666f726d2074686973206163746960008301527f6f6e0000000000000000000000000000000000000000000000000000000000006020830152604082019050919050565b6000610f766017836111d9565b91507f446f63756d656e7420646f6573206e6f742065786973740000000000000000006000830152602082019050919050565b610fb281611246565b82525050565b6000610fc48284610e12565b915081905092915050565b6000602082019050610fe46000830184610dac565b92915050565b6000608082019050610fff6000830187610dac565b61100c6020830186610dca565b6110196040830185610dbb565b818103606083015261102b8184610dd9565b905095945050505050565b600060208201905061104b6000830184610dbb565b92915050565b60006020820190506110666000830184610dca565b92915050565b600060a08201905081810360008301526110868188610dd9565b90506110956020830187610dac565b6110a26040830186610fa9565b81810360608301526110b48185610dd9565b90506110c36080830184610dbb565b9695505050505050565b600060208201905081810360008301526110e681610e43565b9050919050565b6000602082019050818103600083015261110681610e83565b9050919050565b6000602082019050818103600083015261112681610ec3565b9050919050565b6000602082019050818103600083015261114681610f03565b9050919050565b6000602082019050818103600083015261116681610f69565b9050919050565b6000604051905081810181811067ffffffffffffffff8211171561119457611193611334565b5b8060405250919050565b600067ffffffffffffffff8211156111b9576111b8611334565b5b601f19601f8301169050602081019050919050565b600081519050919050565b600082825260208201905092915050565b600081905092915050565b600061120082611226565b9050919050565b60008115159050919050565b600081905061122182611374565b919050565b600073ffffffffffffffffffffffffffffffffffffffff82169050919050565b6000819050919050565b600061125b82611213565b9050919050565b82818337600083830152505050565b60005b8381101561128f578082015181840152602081019050611274565b8381111561129e576000848401525b50505050565b600060028204905060018216806112bc57607f821691505b602082108114156112d0576112cf611305565b5b50919050565b7f4e487b7100000000000000000000000000000000000000000000000000000000600052602160045260246000fd5b7f4e487b7100000000000000000000000000000000000000000000000000000000600052602260045260246000fd5b7f4e487b7100000000000000000000000000000000000000000000000000000000600052604160045260246000fd5b6000601f19601f8301169050919050565b60048110611385576113846112d6565b5b50565b611391816111f5565b811461139c57600080fd5b50565b600481106113ac57600080fd5b5056fea2646970667358221220ec79c0cff6340c4f975eefccb5f427c6f121dc9af690e53c17fc7d15b829931564736f6c63430008000033",
  "linkReferences": {},
  "deployedLinkReferences": {}
}