{
  "_format": "hh-sol-artifact-1",
  "contractName": "DocumentManager",
  "sourceName": "contracts/DocumentManager.sol",
  "abi": [
    {
      "inputs": [],
      "stateMutability": "nonpayable",
      "type": "constructor"
    },
    {
      "anonymous": false,
      "inputs": [
        {
          "indexed": true,
          "internalType": "string",
          "name": "hash",
          "type": "string"
        },
        {
          "indexed": false,
          "internalType": "address",
          "name": "creator",
          "type": "address"
        }
      ],
      "name": "DocumentCreated",
      "type": "event"
    },
    {
      "anonymous": false,
      "inputs": [
        {
          "indexed": true,
          "internalType": "string",
          "name": "hash",
          "type": "string"
        },
        {
          "indexed": false,
          "internalType": "bool",
          "name": "isValid",
          "type": "bool"
        }
      ],
      "name": "DocumentStatusChanged",
      "type": "event"
    },
    {
      "anonymous": false,
      "inputs": [
        {
          "indexed": true,
          "internalType": "address",
          "name": "userAddress",
          "type": "address"
        },
        {
          "indexed": false,
          "internalType": "enum DocumentManager.UserRole",
          "name": "role",
          "type": "uint8"
        }
      ],
      "name": "UserAdded",
      "type": "event"
    },
    {
      "anonymous": false,
      "inputs": [
        {
          "indexed": true,
          "internalType": "address",
          "name": "userAddress",
          "type": "address"
        },
        {
          "indexed": false,
          "internalType": "enum DocumentManager.UserRole",
          "name": "role",
          "type": "uint8"
        }
      ],
      "name": "UserRoleUpdated",
      "type": "event"
    },
    {
      "inputs": [
        {
          "internalType": "address",
          "name": "_adminAddress",
          "type": "address"
        }
      ],
      "name": "addAdministrator",
      "outputs": [],
      "stateMutability": "nonpayable",
      "type": "function"
    },
    {
      "inputs": [
        {
          "internalType": "address",
          "name": "_userAddress",
          "type": "address"
        },
        {
          "internalType": "enum DocumentManager.UserRole",
          "name": "_role",
          "type": "uint8"
        },
        {
          "internalType": "string",
          "name": "_name",
          "type": "string"
        }
      ],
      "name": "addUser",
      "outputs": [],
      "stateMutability": "nonpayable",
      "type": "function"
    },
    {
      "inputs": [
        {
          "internalType": "address",
          "name": "",
          "type": "address"
        }
      ],
      "name": "administrators",
      "outputs": [
        {
          "internalType": "bool",
          "name": "",
          "type": "bool"
        }
      ],
      "stateMutability": "view",
      "type": "function"
    },
    {
      "inputs": [
        {
          "internalType": "string",
          "name": "_hash",
          "type": "string"
        },
        {
          "internalType": "string",
          "name": "_qrCode",
          "type": "string"
        }
      ],
      "name": "createDocument",
      "outputs": [],
      "stateMutability": "nonpayable",
      "type": "function"
    },
    {
      "inputs": [
        {
          "internalType": "string",
          "name": "",
          "type": "string"
        }
      ],
      "name": "documents",
      "outputs": [
        {
          "internalType": "string",
          "name": "hash",
          "type": "string"
        },
        {
          "internalType": "address",
          "name": "creator",
          "type": "address"
        },
        {
          "internalType": "uint256",
          "name": "timestamp",
          "type": "uint256"
        },
        {
          "internalType": "string",
          "name": "qrCode",
          "type": "string"
        },
        {
          "internalType": "bool",
          "name": "isValid",
          "type": "bool"
        }
      ],
      "stateMutability": "view",
      "type": "function"
    },
    {
      "inputs": [
        {
          "internalType": "string",
          "name": "_hash",
          "type": "string"
        }
      ],
      "name": "invalidateDocument",
      "outputs": [],
      "stateMutability": "nonpayable",
      "type": "function"
    },
    {
      "inputs": [
        {
          "internalType": "address",
          "name": "_userAddress",
          "type": "address"
        },
        {
          "internalType": "enum DocumentManager.UserRole",
          "name": "_newRole",
          "type": "uint8"
        }
      ],
      "name": "updateUserRole",
      "outputs": [],
      "stateMutability": "nonpayable",
      "type": "function"
    },
    {
      "inputs": [
        {
          "internalType": "address",
          "name": "",
          "type": "address"
        }
      ],
      "name": "users",
      "outputs": [
        {
          "internalType": "address",
          "name": "userAddress",
          "type": "address"
        },
        {
          "internalType": "enum DocumentManager.UserRole",
          "name": "role",
          "type": "uint8"
        },
        {
          "internalType": "bool",
          "name": "isActive",
          "type": "bool"
        },
        {
          "internalType": "string",
          "name": "name",
          "type": "string"
        }
      ],
      "stateMutability": "view",
      "type": "function"
    },
    {
      "inputs": [
        {
          "internalType": "string",
          "name": "_hash",
          "type": "string"
        }
      ],
      "name": "verifyDocument",
      "outputs": [
        {
          "internalType": "bool",
          "name": "",
          "type": "bool"
        }
      ],
      "stateMutability": "view",
      "type": "function"
    }
  ],
  "bytecode": "0x608060405234801561001057600080fd5b5060018060003373ffffffffffffffffffffffffffffffffffffffff1673ffffffffffffffffffffffffffffffffffffffff16815260200190815260200160002060006101000a81548160ff021916908315150217905550611bb0806100776000396000f3fe608060405234801561001057600080fd5b50600436106100935760003560e01c8063a87430ba11610066578063a87430ba1461011c578063b3dd697b1461014f578063beee5eb714610183578063c291fe62146101b3578063c9991176146101cf57610093565b80631b621875146100985780633d7dc4c1146100b457806376be1585146100d057806393ebc4c814610100575b600080fd5b6100b260048036038101906100ad91906110d8565b6101eb565b005b6100ce60048036038101906100c991906111a4565b610364565b005b6100ea60048036038101906100e59190611213565b610725565b6040516100f7919061125b565b60405180910390f35b61011a60048036038101906101159190611276565b610745565b005b61013660048036038101906101319190611213565b6108f7565b60405161014694939291906113f3565b60405180910390f35b610169600480360381019061016491906110d8565b6109e9565b60405161017a959493929190611458565b60405180910390f35b61019d600480360381019061019891906110d8565b610b72565b6040516101aa919061125b565b60405180910390f35b6101cd60048036038101906101c891906114b9565b610ba9565b005b6101e960048036038101906101e49190611213565b610e29565b005b600160003373ffffffffffffffffffffffffffffffffffffffff1673ffffffffffffffffffffffffffffffffffffffff16815260200190815260200160002060009054906101000a900460ff16610277576040517f08c379a000000000000000000000000000000000000000000000000000000000815260040161026e9061156b565b60405180910390fd5b6000808260405161028891906115c7565b908152602001604051809103902060020154036102da576040517f08c379a00000000000000000000000000000000000000000000000000000000081526004016102d19061162a565b60405180910390fd5b600080826040516102eb91906115c7565b908152602001604051809103902060040160006101000a81548160ff0219169083151502179055508060405161032191906115c7565b60405180910390207f30d7e87869736f7146fcc8fe23a82408eb3e43dda8b820c5117ad13891fc1da26000604051610359919061125b565b60405180910390a250565b600160003373ffffffffffffffffffffffffffffffffffffffff1673ffffffffffffffffffffffffffffffffffffffff16815260200190815260200160002060009054906101000a900460ff166103f0576040517f08c379a00000000000000000000000000000000000000000000000000000000081526004016103e79061156b565b60405180910390fd5b600073ffffffffffffffffffffffffffffffffffffffff168373ffffffffffffffffffffffffffffffffffffffff160361045f576040517f08c379a000000000000000000000000000000000000000000000000000000000815260040161045690611696565b60405180910390fd5b60006003811115610473576104726112fd565b5b826003811115610486576104856112fd565b5b036104c6576040517f08c379a00000000000000000000000000000000000000000000000000000000081526004016104bd90611702565b60405180910390fd5b600073ffffffffffffffffffffffffffffffffffffffff16600260008573ffffffffffffffffffffffffffffffffffffffff1673ffffffffffffffffffffffffffffffffffffffff16815260200190815260200160002060000160009054906101000a900473ffffffffffffffffffffffffffffffffffffffff1673ffffffffffffffffffffffffffffffffffffffff1614610597576040517f08c379a000000000000000000000000000000000000000000000000000000000815260040161058e9061176e565b60405180910390fd5b60405180608001604052808473ffffffffffffffffffffffffffffffffffffffff1681526020018360038111156105d1576105d06112fd565b5b815260200160011515815260200182815250600260008573ffffffffffffffffffffffffffffffffffffffff1673ffffffffffffffffffffffffffffffffffffffff16815260200190815260200160002060008201518160000160006101000a81548173ffffffffffffffffffffffffffffffffffffffff021916908373ffffffffffffffffffffffffffffffffffffffff16021790555060208201518160000160146101000a81548160ff02191690836003811115610694576106936112fd565b5b021790555060408201518160000160156101000a81548160ff02191690831515021790555060608201518160010190816106ce919061199a565b509050508273ffffffffffffffffffffffffffffffffffffffff167f8d93da78c5d61de09788c993549916bf1b30acbd57b05c246459808bd55945ed836040516107189190611a6c565b60405180910390a2505050565b60016020528060005260406000206000915054906101000a900460ff1681565b6000808360405161075691906115c7565b908152602001604051809103902060020154146107a8576040517f08c379a000000000000000000000000000000000000000000000000000000000815260040161079f90611ad3565b60405180910390fd5b6040518060a001604052808381526020013373ffffffffffffffffffffffffffffffffffffffff168152602001428152602001828152602001600115158152506000836040516107f891906115c7565b9081526020016040518091039020600082015181600001908161081b919061199a565b5060208201518160010160006101000a81548173ffffffffffffffffffffffffffffffffffffffff021916908373ffffffffffffffffffffffffffffffffffffffff160217905550604082015181600201556060820151816003019081610882919061199a565b5060808201518160040160006101000a81548160ff021916908315150217905550905050816040516108b491906115c7565b60405180910390207f144ced1a295f096707ac7e7d8aa1a5a89bc1fd73ea6c8d75de34bba0fe0b132e336040516108eb9190611af3565b60405180910390a25050565b60026020528060005260406000206000915090508060000160009054906101000a900473ffffffffffffffffffffffffffffffffffffffff16908060000160149054906101000a900460ff16908060000160159054906101000a900460ff1690806001018054610966906117bd565b80601f0160208091040260200160405190810160405280929190818152602001828054610992906117bd565b80156109df5780601f106109b4576101008083540402835291602001916109df565b820191906000526020600020905b8154815290600101906020018083116109c257829003601f168201915b5050505050905084565b600081805160208101820180518482526020830160208501208183528095505050505050600091509050806000018054610a22906117bd565b80601f0160208091040260200160405190810160405280929190818152602001828054610a4e906117bd565b8015610a9b5780601f10610a7057610100808354040283529160200191610a9b565b820191906000526020600020905b815481529060010190602001808311610a7e57829003601f168201915b5050505050908060010160009054906101000a900473ffffffffffffffffffffffffffffffffffffffff1690806002015490806003018054610adc906117bd565b80601f0160208091040260200160405190810160405280929190818152602001828054610b08906117bd565b8015610b555780601f10610b2a57610100808354040283529160200191610b55565b820191906000526020600020905b815481529060010190602001808311610b3857829003601f168201915b5050505050908060040160009054906101000a900460ff16905085565b60008082604051610b8391906115c7565b908152602001604051809103902060040160009054906101000a900460ff169050919050565b600160003373ffffffffffffffffffffffffffffffffffffffff1673ffffffffffffffffffffffffffffffffffffffff16815260200190815260200160002060009054906101000a900460ff16610c35576040517f08c379a0000000000000000000000000000000000000000000000000000000008152600401610c2c9061156b565b60405180910390fd5b600073ffffffffffffffffffffffffffffffffffffffff16600260008473ffffffffffffffffffffffffffffffffffffffff1673ffffffffffffffffffffffffffffffffffffffff16815260200190815260200160002060000160009054906101000a900473ffffffffffffffffffffffffffffffffffffffff1673ffffffffffffffffffffffffffffffffffffffff1603610d06576040517f08c379a0000000000000000000000000000000000000000000000000000000008152600401610cfd90611b5a565b60405180910390fd5b60006003811115610d1a57610d196112fd565b5b816003811115610d2d57610d2c6112fd565b5b03610d6d576040517f08c379a0000000000000000000000000000000000000000000000000000000008152600401610d6490611702565b60405180910390fd5b80600260008473ffffffffffffffffffffffffffffffffffffffff1673ffffffffffffffffffffffffffffffffffffffff16815260200190815260200160002060000160146101000a81548160ff02191690836003811115610dd257610dd16112fd565b5b02179055508173ffffffffffffffffffffffffffffffffffffffff167f8348234787debc8768e710bb8608864a37ffc99e6bde8bf5358171239895f2b382604051610e1d9190611a6c565b60405180910390a25050565b600160003373ffffffffffffffffffffffffffffffffffffffff1673ffffffffffffffffffffffffffffffffffffffff16815260200190815260200160002060009054906101000a900460ff16610eb5576040517f08c379a0000000000000000000000000000000000000000000000000000000008152600401610eac9061156b565b60405180910390fd5b600073ffffffffffffffffffffffffffffffffffffffff168173ffffffffffffffffffffffffffffffffffffffff1603610f24576040517f08c379a0000000000000000000000000000000000000000000000000000000008152600401610f1b90611696565b60405180910390fd5b60018060008373ffffffffffffffffffffffffffffffffffffffff1673ffffffffffffffffffffffffffffffffffffffff16815260200190815260200160002060006101000a81548160ff02191690831515021790555050565b6000604051905090565b600080fd5b600080fd5b600080fd5b600080fd5b6000601f19601f8301169050919050565b7f4e487b7100000000000000000000000000000000000000000000000000000000600052604160045260246000fd5b610fe582610f9c565b810181811067ffffffffffffffff8211171561100457611003610fad565b5b80604052505050565b6000611017610f7e565b90506110238282610fdc565b919050565b600067ffffffffffffffff82111561104357611042610fad565b5b61104c82610f9c565b9050602081019050919050565b82818337600083830152505050565b600061107b61107684611028565b61100d565b90508281526020810184848401111561109757611096610f97565b5b6110a2848285611059565b509392505050565b600082601f8301126110bf576110be610f92565b5b81356110cf848260208601611068565b91505092915050565b6000602082840312156110ee576110ed610f88565b5b600082013567ffffffffffffffff81111561110c5761110b610f8d565b5b611118848285016110aa565b91505092915050565b600073ffffffffffffffffffffffffffffffffffffffff82169050919050565b600061114c82611121565b9050919050565b61115c81611141565b811461116757600080fd5b50565b60008135905061117981611153565b92915050565b6004811061118c57600080fd5b50565b60008135905061119e8161117f565b92915050565b6000806000606084860312156111bd576111bc610f88565b5b60006111cb8682870161116a565b93505060206111dc8682870161118f565b925050604084013567ffffffffffffffff8111156111fd576111fc610f8d565b5b611209868287016110aa565b9150509250925092565b60006020828403121561122957611228610f88565b5b60006112378482850161116a565b91505092915050565b60008115159050919050565b61125581611240565b82525050565b6000602082019050611270600083018461124c565b92915050565b6000806040838503121561128d5761128c610f88565b5b600083013567ffffffffffffffff8111156112ab576112aa610f8d565b5b6112b7858286016110aa565b925050602083013567ffffffffffffffff8111156112d8576112d7610f8d565b5b6112e4858286016110aa565b9150509250929050565b6112f781611141565b82525050565b7f4e487b7100000000000000000000000000000000000000000000000000000000600052602160045260246000fd5b6004811061133d5761133c6112fd565b5b50565b600081905061134e8261132c565b919050565b600061135e82611340565b9050919050565b61136e81611353565b82525050565b600081519050919050565b600082825260208201905092915050565b60005b838110156113ae578082015181840152602081019050611393565b60008484015250505050565b60006113c582611374565b6113cf818561137f565b93506113df818560208601611390565b6113e881610f9c565b840191505092915050565b600060808201905061140860008301876112ee565b6114156020830186611365565b611422604083018561124c565b818103606083015261143481846113ba565b905095945050505050565b6000819050919050565b6114528161143f565b82525050565b600060a082019050818103600083015261147281886113ba565b905061148160208301876112ee565b61148e6040830186611449565b81810360608301526114a081856113ba565b90506114af608083018461124c565b9695505050505050565b600080604083850312156114d0576114cf610f88565b5b60006114de8582860161116a565b92505060206114ef8582860161118f565b9150509250929050565b7f4f6e6c792061646d696e2063616e20706572666f726d2074686973206163746960008201527f6f6e000000000000000000000000000000000000000000000000000000000000602082015250565b600061155560228361137f565b9150611560826114f9565b604082019050919050565b6000602082019050818103600083015261158481611548565b9050919050565b600081905092915050565b60006115a182611374565b6115ab818561158b565b93506115bb818560208601611390565b80840191505092915050565b60006115d38284611596565b915081905092915050565b7f446f63756d656e7420646f6573206e6f74206578697374000000000000000000600082015250565b600061161460178361137f565b915061161f826115de565b602082019050919050565b6000602082019050818103600083015261164381611607565b9050919050565b7f496e76616c696420616464726573730000000000000000000000000000000000600082015250565b6000611680600f8361137f565b915061168b8261164a565b602082019050919050565b600060208201905081810360008301526116af81611673565b9050919050565b7f496e76616c696420726f6c650000000000000000000000000000000000000000600082015250565b60006116ec600c8361137f565b91506116f7826116b6565b602082019050919050565b6000602082019050818103600083015261171b816116df565b9050919050565b7f5573657220616c72656164792065786973747300000000000000000000000000600082015250565b600061175860138361137f565b915061176382611722565b602082019050919050565b600060208201905081810360008301526117878161174b565b9050919050565b7f4e487b7100000000000000000000000000000000000000000000000000000000600052602260045260246000fd5b600060028204905060018216806117d557607f821691505b6020821081036117e8576117e761178e565b5b50919050565b60008190508160005260206000209050919050565b60006020601f8301049050919050565b600082821b905092915050565b6000600883026118507fffffffffffffffffffffffffffffffffffffffffffffffffffffffffffffffff82611813565b61185a8683611813565b95508019841693508086168417925050509392505050565b6000819050919050565b600061189761189261188d8461143f565b611872565b61143f565b9050919050565b6000819050919050565b6118b18361187c565b6118c56118bd8261189e565b848454611820565b825550505050565b600090565b6118da6118cd565b6118e58184846118a8565b505050565b5b81811015611909576118fe6000826118d2565b6001810190506118eb565b5050565b601f82111561194e5761191f816117ee565b61192884611803565b81016020851015611937578190505b61194b61194385611803565b8301826118ea565b50505b505050565b600082821c905092915050565b600061197160001984600802611953565b1980831691505092915050565b600061198a8383611960565b9150826002028217905092915050565b6119a382611374565b67ffffffffffffffff8111156119bc576119bb610fad565b5b6119c682546117bd565b6119d182828561190d565b600060209050601f831160018114611a0457600084156119f2578287015190505b6119fc858261197e565b865550611a64565b601f198416611a12866117ee565b60005b82811015611a3a57848901518255600182019150602085019450602081019050611a15565b86831015611a575784890151611a53601f891682611960565b8355505b6001600288020188555050505b505050505050565b6000602082019050611a816000830184611365565b92915050565b7f446f63756d656e7420616c726561647920657869737473000000000000000000600082015250565b6000611abd60178361137f565b9150611ac882611a87565b602082019050919050565b60006020820190508181036000830152611aec81611ab0565b9050919050565b6000602082019050611b0860008301846112ee565b92915050565b7f5573657220646f6573206e6f7420657869737400000000000000000000000000600082015250565b6000611b4460138361137f565b9150611b4f82611b0e565b602082019050919050565b60006020820190508181036000830152611b7381611b37565b905091905056fea26469706673582212207797946cc91f4947ac55c7ee9eff6a822b1f019ce51583c67cae3c8735fb05d964736f6c63430008130033",
  "linkReferences": {},
  "deployedLinkReferences": {}
}